:060000000A128A11122809
:10000800FE00030EF1000408F2000A08F300831250
:1000180003137F08F4000A128A1142290A128A116E
:100028001528F70183132030840030300A128A1112
:100038007C2183010A128A11F5281430F6007930E0
:10004800F500F50B2528F60B25282A2838308312C9
:1000580003138800071500008312031307110730E4
:10006800F6007D30F500F50B3728F60B372883129C
:100078000313071500008312031307112130F5003D
:10008800F50B44288312031307150000831203138A
:1000980007110330F6009730F500F50B5128F60BE1
:1000A80051285628831203130715000083120313DF
:1000B80007110330F6009730F500F50B6128F60BB1
:1000C8006128662883120313071508308800071172
:1000D8000330F6009730F500F50B7028F60B702802
:1000E80075288312031307150130880007110330A0
:1000F800F6009730F500F50B7F28F60B7F2884284B
:100108008312031307150630880007110330F60021
:100118009730F500F50B8E28F60B8E2893280800EB
:100128008312031307158030880007110C308312DF
:100138000313B000B00B9E28000083120313B30111
:10014800B4013408803AFF0080307F02031DAE28D6
:10015800103033020318080083120313330875079D
:10016800B1007608B0000318B00AB31BB0038312BD
:1001780003133008B2003208FF00310884000A1265
:100188008A112A210A128A11003A03190800071451
:10019800071533087507B1007608B0000318B00AD0
:1001A800B31BB003831203133008B2003208FF00F8
:1001B800310884000A128A112A210A128A11880039
:1001C800071107100E3083120313B000B00BEA2892
:1001D800013083120313B3070318B40A0030B407BD
:1001E800A5280A128A1173210A128A110A128A1181
:1001F80056210A128A110A128A1121200A128A111A
:100208000A128A1165210A128A110130F50080301C
:10021800F6000A128A1194200A128A110D308312EC
:100228000313B600FB30B500B50B1829B60B182917
:100238007703031D12292030F5000030F6000A125A
:100248008A1194200A128A11F7011229FF1B3429F6
:1002580083137F1883170008840A0319FF0A08000C
:1002680001308A000408840A820700344E344F346F
:100278007434683469346E34673400348B138C1EDC
:100288004B291A08F0007008A000F701F70A740853
:10029800FF0073088A0072088400710E8300FE0E46
:1002A8007E0E0900831203131816831603131812FF
:1002B800831203139817831603131815193099001E
:1002C80008000C30831203138800071500008312FE
:1002D800031307110D30F500F50B7029080083167C
:1002E80003138701880183120313071007110800FD
:1002F80064008001840A04060319003404067D2979
:04400E00E4E0FFFEED
:00000001FF
