:060000000A128A11122809
:10000800FE00030EF1000408F2000A08F300831250
:1000180003137F08F4000A128A11CD290A128A11E3
:100028001528F701F80183132030840042300A12A2
:100038008A116D2283010A128A1122280A128A1152
:1000480063220A128A110A128A1198200A128A1146
:100058000A128A1155220A128A110A128A113122A9
:100068000A128A110130F5008030F6000A128A114E
:100078006C210A128A110E30F5008030F6000A123F
:100088008A110B210A128A110D3083120313C8003A
:10009800FB30C700C70B4E28C80B4E280F30831201
:1000A80003132006031D48280A128A1145220A1242
:1000B8008A113230F5000030F6000A128A116C21DC
:1000C8000A128A112230F5000030F6000A128A114D
:1000D8000B210A128A1183120313A101A001C9017D
:1000E800CA014A08803AFF0080307F02031D7E283B
:1000F8001030490203184828203083120313C70020
:100108004908323E84004708831380002030C70026
:100118004908223E8400470880000130C9070318B7
:10012800CA0A0030CA0775281430F6007930F5007D
:10013800F50B9C28F60B9C28A12838308312031352
:100148008800071500008312031307110730F60013
:100158007D30F500F50BAE28F60BAE28831203139D
:10016800071500008312031307112130F500F50B62
:10017800BB2883120313071500008312031307110A
:100188000330F6009730F500F50BC828F60BC828A1
:10019800CD288312031307150000831203130711D8
:1001A8000330F6009730F500F50BD828F60BD82861
:1001B800DD28831203130715083088000711033060
:1001C800F6009730F500F50BE728F60BE728EC2842
:1001D8008312031307150130880007110330F60056
:1001E8009730F500F50BF628F60BF628FB28831256
:1001F800031307150630880007110330F6009730FF
:10020800F500F50B0529F60B05290A2908008312C4
:1002180003130715C030880007110C30831203132D
:10022800C200C20B1529000083120313C501C601C1
:100238004608803AFF0080307F02031D25291030D0
:100248004502031808008312031345087507C30005
:100258007608C2000318C20AC51BC203831203131F
:100268004208C4004408FF00430884000A128A11A7
:100278000A220A128A11003A0319080007140715FE
:1002880045087507C3007608C2000318C20AC51BD3
:10029800C203831203134208C4004408FF00430842
:1002A80084000A128A110A220A128A118800071188
:1002B80007100E3083120313C200C20B61290130EC
:1002C80083120313C5070318C60A0030C6071C2982
:1002D8008312031307158030880007110C3083122E
:1002E8000313C200C20B7629000083120313C50151
:1002F800C6014608803AFF0080307F02031D862928
:1003080010304502031808008312031345087507C7
:10031800C3007608C2000318C20AC51BC2038312B1
:1003280003134208C4004408FF00430884000A126B
:100338008A110A220A128A11003A031908000714BE
:10034800071545087507C3007608C2000318C20AD6
:10035800C51BC203831203134208C4004408FF00EC
:10036800430884000A128A110A220A128A11880094
:10037800071107100E3083120313C200C20BC229E3
:10038800013083120313C5070318C60A0030C607D5
:100398007D298C1EFF290F3021060319E9290A300F
:1003A8001A060319E4291A08F0002108323E8400CD
:1003B8007008831380000130F0007008A107FE293F
:1003C8000F30F0007008A100FE290A301A06031940
:1003D800FA291A08F0002008223E840070088313C6
:1003E80080000130F0007008A007FE290F30F000EF
:1003F8007008A0008C127408FF0073088A00720845
:100408008400710E8300FE0E7E0E0900FF1B142A65
:1004180083137F1883170008840A0319FF0A08004A
:1004280002308A000408840A82070034533479347D
:100438007334743465346D34203472346534613403
:1004480064347934003450344934433431343634E4
:1004580046343834383437340034831603138C1652
:100468000B178B178312031318168316031318120E
:10047800831203139817831603131815193099005C
:100488000800831203130715013088000711033091
:10049800F6009730F500F50B4F2AF60B4F2A542A31
:1004A80008000C308312031388000715000083121C
:1004B800031307110D30F500F50B602A08008316A9
:1004C8000313870187178801831203130710071185
:1004D800080064008001840A040603190034040635
:0204E8006E2A7A
:04400E00E4E0FFFEED
:00000001FF
